{
  "_format": "hh-sol-artifact-1",
  "contractName": "CrowdFund",
  "sourceName": "contracts/CrowdFunding.sol",
  "abi": [
    {
      "anonymous": false,
      "inputs": [
        {
          "indexed": true,
          "internalType": "uint256",
          "name": "campaignId",
          "type": "uint256"
        },
        {
          "indexed": true,
          "internalType": "address",
          "name": "owner",
          "type": "address"
        },
        {
          "indexed": false,
          "internalType": "string",
          "name": "title",
          "type": "string"
        },
        {
          "indexed": false,
          "internalType": "uint256",
          "name": "goal",
          "type": "uint256"
        },
        {
          "indexed": false,
          "internalType": "uint256",
          "name": "deadline",
          "type": "uint256"
        }
      ],
      "name": "CampaignCreated",
      "type": "event"
    },
    {
      "anonymous": false,
      "inputs": [
        {
          "indexed": true,
          "internalType": "uint256",
          "name": "campaignId",
          "type": "uint256"
        },
        {
          "indexed": true,
          "internalType": "address",
          "name": "contributor",
          "type": "address"
        },
        {
          "indexed": false,
          "internalType": "uint256",
          "name": "amount",
          "type": "uint256"
        },
        {
          "indexed": false,
          "internalType": "uint256",
          "name": "timestamp",
          "type": "uint256"
        }
      ],
      "name": "Contributed",
      "type": "event"
    },
    {
      "anonymous": false,
      "inputs": [
        {
          "indexed": true,
          "internalType": "uint256",
          "name": "campaignId",
          "type": "uint256"
        },
        {
          "indexed": true,
          "internalType": "address",
          "name": "donor",
          "type": "address"
        },
        {
          "indexed": false,
          "internalType": "uint256",
          "name": "amount",
          "type": "uint256"
        }
      ],
      "name": "Refunded",
      "type": "event"
    },
    {
      "anonymous": false,
      "inputs": [
        {
          "indexed": true,
          "internalType": "uint256",
          "name": "campaignId",
          "type": "uint256"
        },
        {
          "indexed": true,
          "internalType": "address",
          "name": "owner",
          "type": "address"
        },
        {
          "indexed": false,
          "internalType": "uint256",
          "name": "amount",
          "type": "uint256"
        }
      ],
      "name": "Withdrawn",
      "type": "event"
    },
    {
      "inputs": [],
      "name": "campaignCount",
      "outputs": [
        {
          "internalType": "uint256",
          "name": "",
          "type": "uint256"
        }
      ],
      "stateMutability": "view",
      "type": "function"
    },
    {
      "inputs": [
        {
          "internalType": "uint256",
          "name": "",
          "type": "uint256"
        }
      ],
      "name": "campaigns",
      "outputs": [
        {
          "internalType": "address",
          "name": "owner",
          "type": "address"
        },
        {
          "internalType": "string",
          "name": "title",
          "type": "string"
        },
        {
          "internalType": "string",
          "name": "description",
          "type": "string"
        },
        {
          "internalType": "string",
          "name": "category",
          "type": "string"
        },
        {
          "internalType": "string",
          "name": "imageURL",
          "type": "string"
        },
        {
          "internalType": "uint256",
          "name": "goal",
          "type": "uint256"
        },
        {
          "internalType": "uint256",
          "name": "raised",
          "type": "uint256"
        },
        {
          "internalType": "uint256",
          "name": "deadline",
          "type": "uint256"
        },
        {
          "internalType": "uint256",
          "name": "minContribution",
          "type": "uint256"
        },
        {
          "internalType": "uint256",
          "name": "uniqueDonors",
          "type": "uint256"
        },
        {
          "internalType": "bool",
          "name": "withdrawn",
          "type": "bool"
        }
      ],
      "stateMutability": "view",
      "type": "function"
    },
    {
      "inputs": [
        {
          "internalType": "uint256",
          "name": "_campaignId",
          "type": "uint256"
        }
      ],
      "name": "contribute",
      "outputs": [],
      "stateMutability": "payable",
      "type": "function"
    },
    {
      "inputs": [
        {
          "internalType": "uint256",
          "name": "",
          "type": "uint256"
        },
        {
          "internalType": "address",
          "name": "",
          "type": "address"
        }
      ],
      "name": "contributions",
      "outputs": [
        {
          "internalType": "uint256",
          "name": "",
          "type": "uint256"
        }
      ],
      "stateMutability": "view",
      "type": "function"
    },
    {
      "inputs": [
        {
          "internalType": "string",
          "name": "_title",
          "type": "string"
        },
        {
          "internalType": "string",
          "name": "_description",
          "type": "string"
        },
        {
          "internalType": "string",
          "name": "_category",
          "type": "string"
        },
        {
          "internalType": "string",
          "name": "_imageURL",
          "type": "string"
        },
        {
          "internalType": "uint256",
          "name": "_goal",
          "type": "uint256"
        },
        {
          "internalType": "uint256",
          "name": "_deadline",
          "type": "uint256"
        },
        {
          "internalType": "uint256",
          "name": "_minContribution",
          "type": "uint256"
        }
      ],
      "name": "createCampaign",
      "outputs": [],
      "stateMutability": "nonpayable",
      "type": "function"
    },
    {
      "inputs": [
        {
          "internalType": "uint256",
          "name": "_campaignId",
          "type": "uint256"
        }
      ],
      "name": "getProgress",
      "outputs": [
        {
          "internalType": "uint256",
          "name": "",
          "type": "uint256"
        }
      ],
      "stateMutability": "view",
      "type": "function"
    },
    {
      "inputs": [
        {
          "internalType": "uint256",
          "name": "_campaignId",
          "type": "uint256"
        }
      ],
      "name": "refund",
      "outputs": [],
      "stateMutability": "nonpayable",
      "type": "function"
    },
    {
      "inputs": [
        {
          "internalType": "uint256",
          "name": "_campaignId",
          "type": "uint256"
        }
      ],
      "name": "withdraw",
      "outputs": [],
      "stateMutability": "nonpayable",
      "type": "function"
    }
  ],
  "bytecode": "0x608060405234801561001057600080fd5b50610fb6806100206000396000f3fe60806040526004361061007b5760003560e01c80637274e30d1161004e5780637274e30d14610148578063b0d78d891461015e578063c1cbbca71461017e578063e11efa061461019157600080fd5b8063141961bc14610080578063278ecde1146100c05780632e1a7d4d146100e25780633d891f5914610102575b600080fd5b34801561008c57600080fd5b506100a061009b366004610baf565b6101b1565b6040516100b79b9a99989796959493929190610c15565b60405180910390f35b3480156100cc57600080fd5b506100e06100db366004610baf565b610435565b005b3480156100ee57600080fd5b506100e06100fd366004610baf565b6105ae565b34801561010e57600080fd5b5061013a61011d366004610cb1565b600260209081526000928352604080842090915290825290205481565b6040519081526020016100b7565b34801561015457600080fd5b5061013a60005481565b34801561016a57600080fd5b506100e0610179366004610d90565b610752565b6100e061018c366004610baf565b61098f565b34801561019d57600080fd5b5061013a6101ac366004610baf565b610ace565b6001602081905260009182526040909120805491810180546001600160a01b03909316926101de90610e58565b80601f016020809104026020016040519081016040528092919081815260200182805461020a90610e58565b80156102575780601f1061022c57610100808354040283529160200191610257565b820191906000526020600020905b81548152906001019060200180831161023a57829003601f168201915b50505050509080600201805461026c90610e58565b80601f016020809104026020016040519081016040528092919081815260200182805461029890610e58565b80156102e55780601f106102ba576101008083540402835291602001916102e5565b820191906000526020600020905b8154815290600101906020018083116102c857829003601f168201915b5050505050908060030180546102fa90610e58565b80601f016020809104026020016040519081016040528092919081815260200182805461032690610e58565b80156103735780601f1061034857610100808354040283529160200191610373565b820191906000526020600020905b81548152906001019060200180831161035657829003601f168201915b50505050509080600401805461038890610e58565b80601f01602080910402602001604051908101604052809291908181526020018280546103b490610e58565b80156104015780601f106103d657610100808354040283529160200191610401565b820191906000526020600020905b8154815290600101906020018083116103e457829003601f168201915b50505060058401546006850154600786015460088701546009880154600a9098015496979396929550909350919060ff168b565b60008181526001602052604090206007810154421161046f5760405162461bcd60e51b815260040161046690610e92565b60405180910390fd5b80600501548160060154106104b55760405162461bcd60e51b815260206004820152600c60248201526b11dbd85b081c995858da195960a21b6044820152606401610466565b60008281526002602090815260408083203384529091529020548061050f5760405162461bcd60e51b815260206004820152601060248201526f4e6f20636f6e747269627574696f6e7360801b6044820152606401610466565b6000838152600260209081526040808320338452909152812081905560068301805483929061053f908490610ed2565b9091555050604051339082156108fc029083906000818181858888f19350505050158015610571573d6000803e3d6000fd5b50604051818152339084907f7ca5472b7ea78c2c0141c5a12ee6d170cf4ce8ed06be3d22c8252ddfc7a6a2c49060200160405180910390a3505050565b600081815260016020526040902080546001600160a01b031633146106015760405162461bcd60e51b81526020600482015260096024820152682737ba1037bbb732b960b91b6044820152606401610466565b806007015442116106245760405162461bcd60e51b815260040161046690610e92565b80600501548160060154101561066f5760405162461bcd60e51b815260206004820152601060248201526f11dbd85b081b9bdd081c995858da195960821b6044820152606401610466565b600a81015460ff16156106b85760405162461bcd60e51b815260206004820152601160248201527020b63932b0b23c903bb4ba34323930bbb760791b6044820152606401610466565b600a8101805460ff19166001179055805460068201546040516001600160a01b039092169181156108fc0291906000818181858888f19350505050158015610704573d6000803e3d6000fd5b50805460068201546040519081526001600160a01b039091169083907fcf7d23a3cbe4e8b36ff82fd1b05b1b17373dc7804b4ebbd6e2356716ef202372906020015b60405180910390a35050565b600083116107a25760405162461bcd60e51b815260206004820152601b60248201527f476f616c206d7573742062652067726561746572207468616e203000000000006044820152606401610466565b4282116107f15760405162461bcd60e51b815260206004820152601e60248201527f446561646c696e65206d75737420626520696e207468652066757475726500006044820152606401610466565b604080516101608101825233815260208082018a81528284018a9052606083018990526080830188905260a08301879052600060c0840181905260e08401879052610100840186905261012084018190526101408401819052805481526001808452949020835181546001600160a01b0319166001600160a01b03909116178155905180519394919361088c93928501929190910190610b16565b50604082015180516108a8916002840191602090910190610b16565b50606082015180516108c4916003840191602090910190610b16565b50608082015180516108e0916004840191602090910190610b16565b5060a0820151600582015560c0820151600682015560e082015160078201556101008201516008820155610120820151600982015561014090910151600a909101805460ff19169115159190911790556000546040513391907fdc26653af5b99b2da33e2ad69ee6600d9aeccc82b034501db4338309615ca2389061096a908b9088908890610ee9565b60405180910390a360008054908061098183610f0e565b919050555050505050505050565b6000818152600160205260409020600781015442106109c05760405162461bcd60e51b815260040161046690610e92565b8060080154341015610a145760405162461bcd60e51b815260206004820152601a60248201527f42656c6f77206d696e696d756d20636f6e747269627574696f6e0000000000006044820152606401610466565b60008281526002602090815260408083203384529091528120549003610a4c57600981018054906000610a4683610f0e565b91905055505b600082815260026020908152604080832033845290915281208054349290610a75908490610f27565b9250508190555034816006016000828254610a909190610f27565b909155505060408051348152426020820152339184917fdcfa71ee125a676f843733d9d39dce2c918ecf9e92f96db4f24bdb5244ed68a09101610746565b600081815260016020526040812060058101548203610af05750600092915050565b60058101546006820154610b05906064610f3f565b610b0f9190610f5e565b9392505050565b828054610b2290610e58565b90600052602060002090601f016020900481019282610b445760008555610b8a565b82601f10610b5d57805160ff1916838001178555610b8a565b82800160010185558215610b8a579182015b82811115610b8a578251825591602001919060010190610b6f565b50610b96929150610b9a565b5090565b5b80821115610b965760008155600101610b9b565b600060208284031215610bc157600080fd5b5035919050565b6000815180845260005b81811015610bee57602081850181015186830182015201610bd2565b81811115610c00576000602083870101525b50601f01601f19169290920160200192915050565b6001600160a01b038c16815261016060208201819052600090610c3a8382018e610bc8565b90508281036040840152610c4e818d610bc8565b90508281036060840152610c62818c610bc8565b90508281036080840152610c76818b610bc8565b60a0840199909952505060c081019590955260e085019390935261010084019190915261012083015215156101409091015295945050505050565b60008060408385031215610cc457600080fd5b8235915060208301356001600160a01b0381168114610ce257600080fd5b809150509250929050565b634e487b7160e01b600052604160045260246000fd5b600082601f830112610d1457600080fd5b813567ffffffffffffffff80821115610d2f57610d2f610ced565b604051601f8301601f19908116603f01168101908282118183101715610d5757610d57610ced565b81604052838152866020858801011115610d7057600080fd5b836020870160208301376000602085830101528094505050505092915050565b600080600080600080600060e0888a031215610dab57600080fd5b873567ffffffffffffffff80821115610dc357600080fd5b610dcf8b838c01610d03565b985060208a0135915080821115610de557600080fd5b610df18b838c01610d03565b975060408a0135915080821115610e0757600080fd5b610e138b838c01610d03565b965060608a0135915080821115610e2957600080fd5b50610e368a828b01610d03565b979a969950949760808101359660a0820135965060c090910135945092505050565b600181811c90821680610e6c57607f821691505b602082108103610e8c57634e487b7160e01b600052602260045260246000fd5b50919050565b60208082526010908201526f43616d706169676e206f6e676f696e6760801b604082015260600190565b634e487b7160e01b600052601160045260246000fd5b600082821015610ee457610ee4610ebc565b500390565b606081526000610efc6060830186610bc8565b60208301949094525060400152919050565b600060018201610f2057610f20610ebc565b5060010190565b60008219821115610f3a57610f3a610ebc565b500190565b6000816000190483118215151615610f5957610f59610ebc565b500290565b600082610f7b57634e487b7160e01b600052601260045260246000fd5b50049056fea26469706673582212201920a209ca687a3a54588fc7ea476854c83e4a2d1fdd976a85310abdda571e3f64736f6c634300080e0033",
  "linkReferences": {},
  "deployedLinkReferences": {}
}